{
  "contractName": "PaymentContract",
  "abi": [
    {
      "inputs": [],
      "stateMutability": "nonpayable",
      "type": "constructor"
    },
    {
      "anonymous": false,
      "inputs": [
        {
          "indexed": true,
          "internalType": "address",
          "name": "recipient",
          "type": "address"
        },
        {
          "indexed": true,
          "internalType": "uint256",
          "name": "invoiceId",
          "type": "uint256"
        }
      ],
      "name": "InvoiceCancelled",
      "type": "event"
    },
    {
      "anonymous": false,
      "inputs": [
        {
          "indexed": true,
          "internalType": "address",
          "name": "recipient",
          "type": "address"
        },
        {
          "indexed": true,
          "internalType": "uint256",
          "name": "invoiceId",
          "type": "uint256"
        },
        {
          "indexed": false,
          "internalType": "uint256",
          "name": "amount",
          "type": "uint256"
        }
      ],
      "name": "InvoiceCreated",
      "type": "event"
    },
    {
      "anonymous": false,
      "inputs": [
        {
          "indexed": true,
          "internalType": "address",
          "name": "recipient",
          "type": "address"
        },
        {
          "indexed": true,
          "internalType": "uint256",
          "name": "invoiceId",
          "type": "uint256"
        },
        {
          "indexed": false,
          "internalType": "uint256",
          "name": "amount",
          "type": "uint256"
        }
      ],
      "name": "InvoicePaid",
      "type": "event"
    },
    {
      "inputs": [],
      "name": "nextInvoiceId",
      "outputs": [
        {
          "internalType": "uint256",
          "name": "",
          "type": "uint256"
        }
      ],
      "stateMutability": "view",
      "type": "function",
      "constant": true
    },
    {
      "inputs": [
        {
          "internalType": "address",
          "name": "",
          "type": "address"
        }
      ],
      "name": "userInvoiceCount",
      "outputs": [
        {
          "internalType": "uint256",
          "name": "",
          "type": "uint256"
        }
      ],
      "stateMutability": "view",
      "type": "function",
      "constant": true
    },
    {
      "inputs": [
        {
          "internalType": "address",
          "name": "",
          "type": "address"
        },
        {
          "internalType": "uint256",
          "name": "",
          "type": "uint256"
        }
      ],
      "name": "userInvoices",
      "outputs": [
        {
          "internalType": "uint256",
          "name": "invoiceId",
          "type": "uint256"
        },
        {
          "internalType": "uint256",
          "name": "userId",
          "type": "uint256"
        },
        {
          "internalType": "uint256",
          "name": "amount",
          "type": "uint256"
        },
        {
          "internalType": "enum PaymentContract.InvoiceStatus",
          "name": "status",
          "type": "uint8"
        }
      ],
      "stateMutability": "view",
      "type": "function",
      "constant": true
    },
    {
      "inputs": [
        {
          "internalType": "uint256",
          "name": "_amount",
          "type": "uint256"
        }
      ],
      "name": "createInvoice",
      "outputs": [],
      "stateMutability": "nonpayable",
      "type": "function"
    },
    {
      "inputs": [
        {
          "internalType": "uint256",
          "name": "_invoiceId",
          "type": "uint256"
        }
      ],
      "name": "payInvoice",
      "outputs": [],
      "stateMutability": "payable",
      "type": "function",
      "payable": true
    },
    {
      "inputs": [
        {
          "internalType": "uint256",
          "name": "_invoiceId",
          "type": "uint256"
        }
      ],
      "name": "cancelInvoice",
      "outputs": [],
      "stateMutability": "nonpayable",
      "type": "function"
    },
    {
      "inputs": [
        {
          "internalType": "address",
          "name": "_user",
          "type": "address"
        },
        {
          "internalType": "uint256",
          "name": "_invoiceId",
          "type": "uint256"
        }
      ],
      "name": "getInvoiceStatus",
      "outputs": [
        {
          "internalType": "enum PaymentContract.InvoiceStatus",
          "name": "",
          "type": "uint8"
        }
      ],
      "stateMutability": "view",
      "type": "function",
      "constant": true
    },
    {
      "inputs": [
        {
          "internalType": "address",
          "name": "_user",
          "type": "address"
        }
      ],
      "name": "getUserInvoices",
      "outputs": [
        {
          "components": [
            {
              "internalType": "uint256",
              "name": "invoiceId",
              "type": "uint256"
            },
            {
              "internalType": "uint256",
              "name": "userId",
              "type": "uint256"
            },
            {
              "internalType": "uint256",
              "name": "amount",
              "type": "uint256"
            },
            {
              "internalType": "enum PaymentContract.InvoiceStatus",
              "name": "status",
              "type": "uint8"
            }
          ],
          "internalType": "struct PaymentContract.Invoice[]",
          "name": "",
          "type": "tuple[]"
        }
      ],
      "stateMutability": "view",
      "type": "function",
      "constant": true
    }
  ],
  "bytecode": "0x608060405234801561001057600080fd5b506001600255610893806100256000396000f3fe60806040526004361061007b5760003560e01c80636ff2a9531161004e5780636ff2a953146101435780638897a28314610159578063ac60a6cd14610186578063da9c273d1461019957600080fd5b80630ad6b0a5146100805780631414ef78146100b957806324d3b3e2146100db57806325e6d34514610108575b600080fd5b34801561008c57600080fd5b506100a061009b3660046106fa565b6101b9565b6040516100b094939291906107dd565b60405180910390f35b3480156100c557600080fd5b506100d96100d4366004610724565b610202565b005b3480156100e757600080fd5b506100fb6100f63660046106d8565b61031a565b6040516100b0919061075f565b34801561011457600080fd5b506101356101233660046106d8565b60016020526000908152604090205481565b6040519081526020016100b0565b34801561014f57600080fd5b5061013560025481565b34801561016557600080fd5b506101796101743660046106fa565b6103f1565b6040516100b091906107cf565b6100d9610194366004610724565b610448565b3480156101a557600080fd5b506100d96101b4366004610724565b6105c8565b600060205281600052604060002081815481106101d557600080fd5b60009182526020909120600490910201805460018201546002830154600390930154919450925060ff1684565b336000908152600160208181526040808420548483528185208251608081018452600280548252818601848152948201898152606083018981528454808a018655948a5296909820825160049094020192835593518287015595518184015592516003840180549296959193909260ff19169190849081111561028757610287610831565b021790555050506002543373ffffffffffffffffffffffffffffffffffffffff167f8bb05aaffc7c42e3e2ebeda92408e43976e1652187405a80969fc5aefbefbdd1846040516102d991815260200190565b60405180910390a3600280549060006102f183610808565b909155505033600090815260016020526040812080549161031183610808565b91905055505050565b73ffffffffffffffffffffffffffffffffffffffff8116600090815260208181526040808320805482518185028101850190935280835260609492939192909184015b828210156103e657838290600052602060002090600402016040518060800160405290816000820154815260200160018201548152602001600282015481526020016003820160009054906101000a900460ff1660028111156103c2576103c2610831565b60028111156103d3576103d3610831565b815250508152602001906001019061035d565b505050509050919050565b73ffffffffffffffffffffffffffffffffffffffff8216600090815260208190526040812080548390811061042857610428610847565b600091825260209091206003600490920201015460ff1690505b92915050565b33600090815260208190526040812080548390811061046957610469610847565b6000918252602082206004909102019150600382015460ff16600281111561049357610493610831565b146104f45760405162461bcd60e51b815260206004820152602660248201527f496e766f69636520616c726561647920636f6d706c65746564206f722063616e60448201526518d95b1b195960d21b60648201526084015b60405180910390fd5b80600201543410156105485760405162461bcd60e51b815260206004820152601760248201527f496e73756666696369656e742066756e64732073656e7400000000000000000060448201526064016104eb565b6002810154604051339180156108fc02916000818181858888f19350505050158015610578573d6000803e3d6000fd5b5060038101805460ff191660011790556002810154604051908152829033907ffc873986c22ffb31cfb70c3121d896fc09f656cdb469a8ce0009ab8f687d1d399060200160405180910390a35050565b3360009081526020819052604081208054839081106105e9576105e9610847565b6000918252602082206004909102019150600382015460ff16600281111561061357610613610831565b1461066f5760405162461bcd60e51b815260206004820152602660248201527f496e766f69636520616c726561647920636f6d706c65746564206f722063616e60448201526518d95b1b195960d21b60648201526084016104eb565b60038101805460ff19166002179055604051829033907f11cf30a79fcbfce3059bde251f3da486de47e486c29d282693479114a6bbe9be90600090a35050565b803573ffffffffffffffffffffffffffffffffffffffff811681146106d357600080fd5b919050565b6000602082840312156106ea57600080fd5b6106f3826106af565b9392505050565b6000806040838503121561070d57600080fd5b610716836106af565b946020939093013593505050565b60006020828403121561073657600080fd5b5035919050565b6003811061075b57634e487b7160e01b600052602160045260246000fd5b9052565b602080825282518282018190526000919060409081850190868401855b828110156107c25781518051855286810151878601528581015186860152606090810151906107ad8187018361073d565b5050608093909301929085019060010161077c565b5091979650505050505050565b60208101610442828461073d565b8481526020810184905260408101839052608081016107ff606083018461073d565b95945050505050565b600060001982141561082a57634e487b7160e01b600052601160045260246000fd5b5060010190565b634e487b7160e01b600052602160045260246000fd5b634e487b7160e01b600052603260045260246000fdfea2646970667358221220c2c466af886210a0024418afaa03112ee5615bb58c1c08ea5e745f70ed301f7e64736f6c63430008070033",
  "immutableReferences": {},
  "source": "// SPDX-License-Identifier: MIT\npragma solidity ^0.8.0;\n\ncontract PaymentContract {\n    enum InvoiceStatus { Pending, Completed, Cancelled }\n\n    struct Invoice {\n        uint256 invoiceId;\n        uint256 userId;  // Added userId field\n        uint256 amount;\n        InvoiceStatus status;\n    }\n\n    mapping(address => Invoice[]) public userInvoices;\n    mapping(address => uint256) public userInvoiceCount;  // Added userInvoiceCount mapping\n    uint256 public nextInvoiceId;\n\n    event InvoiceCreated(address indexed recipient, uint256 indexed invoiceId, uint256 amount);\n    event InvoicePaid(address indexed recipient, uint256 indexed invoiceId, uint256 amount);\n    event InvoiceCancelled(address indexed recipient, uint256 indexed invoiceId);\n\n    constructor() {\n        nextInvoiceId = 1;\n    }\n\n    function createInvoice(uint256 _amount) external {\n        uint256 userId = userInvoiceCount[msg.sender];  // Get user's invoice count as userId\n        userInvoices[msg.sender].push(Invoice(nextInvoiceId, userId, _amount, InvoiceStatus.Pending));\n        emit InvoiceCreated(msg.sender, nextInvoiceId, _amount);\n        nextInvoiceId++;\n        userInvoiceCount[msg.sender]++;  // Increment user's invoice count\n    }\n\n    function payInvoice(uint256 _invoiceId) external payable {\n        Invoice storage invoice = userInvoices[msg.sender][_invoiceId];\n        require(invoice.status == InvoiceStatus.Pending, \"Invoice already completed or cancelled\");\n        require(msg.value >= invoice.amount, \"Insufficient funds sent\");\n\n        payable(msg.sender).transfer(invoice.amount);\n        invoice.status = InvoiceStatus.Completed;\n        emit InvoicePaid(msg.sender, _invoiceId, invoice.amount);\n    }\n\n    function cancelInvoice(uint256 _invoiceId) external {\n        Invoice storage invoice = userInvoices[msg.sender][_invoiceId];\n        require(invoice.status == InvoiceStatus.Pending, \"Invoice already completed or cancelled\");\n\n        invoice.status = InvoiceStatus.Cancelled;\n        emit InvoiceCancelled(msg.sender, _invoiceId);\n    }\n\n    function getInvoiceStatus(address _user, uint256 _invoiceId) external view returns (InvoiceStatus) {\n        return userInvoices[_user][_invoiceId].status;\n    }\n\n    function getUserInvoices(address _user) external view returns (Invoice[] memory) {\n        return userInvoices[_user];\n    }\n}",
  "sourcePath": "/Users/obedovabor/Projects/Blockchain/ecc-payment/contracts/PaymentContract.sol",
  "compiler": {
    "name": "solc",
    "version": "0.8.7+commit.e28d00a7.Emscripten.clang"
  },
  "schemaVersion": "3.4.11",
  "updatedAt": "2023-08-22T11:55:05.330Z",
  "networkType": "ethereum",
  "devdoc": {
    "kind": "dev",
    "methods": {},
    "version": 1
  },
  "userdoc": {
    "kind": "user",
    "methods": {},
    "version": 1
  }
}